:100000000C942A000C9434000C9434000C943400AA
:100010000C9434000C9434000C9434000C94340090
:100020000C9434000C9434000C9434000C94340080
:100030000C9434000C9434000C9434000C94340070
:100040000C9434000C9434000C9434000C94340060
:100050000C94340011241FBECFE5D8E0DEBFCDBF25
:100060000E944F000C9454000C9400008FEF81BB51
:10007000089512BA2FEF87EA91E621508040904010
:10008000E1F700C000008FEF82BB2FEF8FE493EC0D
:10009000215080409040E1F700C0000008950E9488
:0C00A00036000E943900FDCFF894FFCF1D
:00000001FF
